{
  "contractName": "SupplyChain",
  "abi": [
    {
      "inputs": [],
      "stateMutability": "nonpayable",
      "type": "constructor"
    },
    {
      "anonymous": false,
      "inputs": [
        {
          "indexed": false,
          "internalType": "string",
          "name": "productID",
          "type": "string"
        },
        {
          "indexed": false,
          "internalType": "string",
          "name": "origin",
          "type": "string"
        },
        {
          "indexed": true,
          "internalType": "address",
          "name": "supplier",
          "type": "address"
        }
      ],
      "name": "ProductCreated",
      "type": "event"
    },
    {
      "anonymous": false,
      "inputs": [
        {
          "indexed": false,
          "internalType": "string",
          "name": "productID",
          "type": "string"
        },
        {
          "indexed": false,
          "internalType": "string",
          "name": "status",
          "type": "string"
        },
        {
          "indexed": true,
          "internalType": "address",
          "name": "updater",
          "type": "address"
        }
      ],
      "name": "ProductStatusUpdated",
      "type": "event"
    },
    {
      "anonymous": false,
      "inputs": [
        {
          "indexed": true,
          "internalType": "bytes32",
          "name": "role",
          "type": "bytes32"
        },
        {
          "indexed": true,
          "internalType": "bytes32",
          "name": "previousAdminRole",
          "type": "bytes32"
        },
        {
          "indexed": true,
          "internalType": "bytes32",
          "name": "newAdminRole",
          "type": "bytes32"
        }
      ],
      "name": "RoleAdminChanged",
      "type": "event"
    },
    {
      "anonymous": false,
      "inputs": [
        {
          "indexed": true,
          "internalType": "bytes32",
          "name": "role",
          "type": "bytes32"
        },
        {
          "indexed": true,
          "internalType": "address",
          "name": "account",
          "type": "address"
        },
        {
          "indexed": true,
          "internalType": "address",
          "name": "sender",
          "type": "address"
        }
      ],
      "name": "RoleGranted",
      "type": "event"
    },
    {
      "anonymous": false,
      "inputs": [
        {
          "indexed": true,
          "internalType": "bytes32",
          "name": "role",
          "type": "bytes32"
        },
        {
          "indexed": true,
          "internalType": "address",
          "name": "account",
          "type": "address"
        },
        {
          "indexed": true,
          "internalType": "address",
          "name": "sender",
          "type": "address"
        }
      ],
      "name": "RoleRevoked",
      "type": "event"
    },
    {
      "inputs": [],
      "name": "CONSUMER_ROLE",
      "outputs": [
        {
          "internalType": "bytes32",
          "name": "",
          "type": "bytes32"
        }
      ],
      "stateMutability": "view",
      "type": "function",
      "constant": true
    },
    {
      "inputs": [],
      "name": "DEFAULT_ADMIN_ROLE",
      "outputs": [
        {
          "internalType": "bytes32",
          "name": "",
          "type": "bytes32"
        }
      ],
      "stateMutability": "view",
      "type": "function",
      "constant": true
    },
    {
      "inputs": [],
      "name": "LOGISTICS_ROLE",
      "outputs": [
        {
          "internalType": "bytes32",
          "name": "",
          "type": "bytes32"
        }
      ],
      "stateMutability": "view",
      "type": "function",
      "constant": true
    },
    {
      "inputs": [],
      "name": "MANUFACTURER_ROLE",
      "outputs": [
        {
          "internalType": "bytes32",
          "name": "",
          "type": "bytes32"
        }
      ],
      "stateMutability": "view",
      "type": "function",
      "constant": true
    },
    {
      "inputs": [],
      "name": "RETAILER_ROLE",
      "outputs": [
        {
          "internalType": "bytes32",
          "name": "",
          "type": "bytes32"
        }
      ],
      "stateMutability": "view",
      "type": "function",
      "constant": true
    },
    {
      "inputs": [],
      "name": "SUPPLIER_ROLE",
      "outputs": [
        {
          "internalType": "bytes32",
          "name": "",
          "type": "bytes32"
        }
      ],
      "stateMutability": "view",
      "type": "function",
      "constant": true
    },
    {
      "inputs": [
        {
          "internalType": "bytes32",
          "name": "role",
          "type": "bytes32"
        }
      ],
      "name": "getRoleAdmin",
      "outputs": [
        {
          "internalType": "bytes32",
          "name": "",
          "type": "bytes32"
        }
      ],
      "stateMutability": "view",
      "type": "function",
      "constant": true
    },
    {
      "inputs": [
        {
          "internalType": "bytes32",
          "name": "role",
          "type": "bytes32"
        },
        {
          "internalType": "address",
          "name": "account",
          "type": "address"
        }
      ],
      "name": "grantRole",
      "outputs": [],
      "stateMutability": "nonpayable",
      "type": "function"
    },
    {
      "inputs": [
        {
          "internalType": "bytes32",
          "name": "role",
          "type": "bytes32"
        },
        {
          "internalType": "address",
          "name": "account",
          "type": "address"
        }
      ],
      "name": "hasRole",
      "outputs": [
        {
          "internalType": "bool",
          "name": "",
          "type": "bool"
        }
      ],
      "stateMutability": "view",
      "type": "function",
      "constant": true
    },
    {
      "inputs": [
        {
          "internalType": "uint256",
          "name": "",
          "type": "uint256"
        }
      ],
      "name": "productList",
      "outputs": [
        {
          "internalType": "string",
          "name": "",
          "type": "string"
        }
      ],
      "stateMutability": "view",
      "type": "function",
      "constant": true
    },
    {
      "inputs": [
        {
          "internalType": "string",
          "name": "",
          "type": "string"
        }
      ],
      "name": "products",
      "outputs": [
        {
          "internalType": "string",
          "name": "productID",
          "type": "string"
        },
        {
          "internalType": "string",
          "name": "productName",
          "type": "string"
        },
        {
          "internalType": "string",
          "name": "origin",
          "type": "string"
        },
        {
          "internalType": "address",
          "name": "currentHolder",
          "type": "address"
        },
        {
          "internalType": "string",
          "name": "status",
          "type": "string"
        },
        {
          "internalType": "string",
          "name": "actor",
          "type": "string"
        }
      ],
      "stateMutability": "view",
      "type": "function",
      "constant": true
    },
    {
      "inputs": [
        {
          "internalType": "bytes32",
          "name": "role",
          "type": "bytes32"
        },
        {
          "internalType": "address",
          "name": "account",
          "type": "address"
        }
      ],
      "name": "renounceRole",
      "outputs": [],
      "stateMutability": "nonpayable",
      "type": "function"
    },
    {
      "inputs": [
        {
          "internalType": "bytes32",
          "name": "role",
          "type": "bytes32"
        },
        {
          "internalType": "address",
          "name": "account",
          "type": "address"
        }
      ],
      "name": "revokeRole",
      "outputs": [],
      "stateMutability": "nonpayable",
      "type": "function"
    },
    {
      "inputs": [
        {
          "internalType": "bytes4",
          "name": "interfaceId",
          "type": "bytes4"
        }
      ],
      "name": "supportsInterface",
      "outputs": [
        {
          "internalType": "bool",
          "name": "",
          "type": "bool"
        }
      ],
      "stateMutability": "view",
      "type": "function",
      "constant": true
    },
    {
      "inputs": [
        {
          "internalType": "string",
          "name": "_productID",
          "type": "string"
        },
        {
          "internalType": "string",
          "name": "_productName",
          "type": "string"
        },
        {
          "internalType": "string",
          "name": "_origin",
          "type": "string"
        },
        {
          "internalType": "string",
          "name": "_location",
          "type": "string"
        },
        {
          "internalType": "string",
          "name": "_actor",
          "type": "string"
        }
      ],
      "name": "createProduct",
      "outputs": [],
      "stateMutability": "nonpayable",
      "type": "function"
    },
    {
      "inputs": [
        {
          "internalType": "string",
          "name": "_productID",
          "type": "string"
        },
        {
          "internalType": "string",
          "name": "_status",
          "type": "string"
        },
        {
          "internalType": "string",
          "name": "_location",
          "type": "string"
        },
        {
          "internalType": "string",
          "name": "_actor",
          "type": "string"
        }
      ],
      "name": "updateStatus",
      "outputs": [],
      "stateMutability": "nonpayable",
      "type": "function"
    },
    {
      "inputs": [
        {
          "internalType": "string",
          "name": "_productID",
          "type": "string"
        }
      ],
      "name": "getProduct",
      "outputs": [
        {
          "internalType": "string",
          "name": "productID",
          "type": "string"
        },
        {
          "internalType": "string",
          "name": "origin",
          "type": "string"
        },
        {
          "internalType": "address",
          "name": "currentHolder",
          "type": "address"
        },
        {
          "internalType": "string",
          "name": "status",
          "type": "string"
        },
        {
          "internalType": "string",
          "name": "productName",
          "type": "string"
        },
        {
          "internalType": "string",
          "name": "actor",
          "type": "string"
        }
      ],
      "stateMutability": "view",
      "type": "function",
      "constant": true
    },
    {
      "inputs": [
        {
          "internalType": "string",
          "name": "_productID",
          "type": "string"
        }
      ],
      "name": "getProductHistory",
      "outputs": [
        {
          "components": [
            {
              "internalType": "string",
              "name": "status",
              "type": "string"
            },
            {
              "internalType": "address",
              "name": "updatedBy",
              "type": "address"
            },
            {
              "internalType": "uint256",
              "name": "timestamp",
              "type": "uint256"
            },
            {
              "internalType": "string",
              "name": "location",
              "type": "string"
            },
            {
              "internalType": "string",
              "name": "actor",
              "type": "string"
            }
          ],
          "internalType": "struct SupplyChain.StatusUpdate[]",
          "name": "",
          "type": "tuple[]"
        }
      ],
      "stateMutability": "view",
      "type": "function",
      "constant": true
    },
    {
      "inputs": [
        {
          "internalType": "bytes32",
          "name": "role",
          "type": "bytes32"
        },
        {
          "internalType": "address",
          "name": "account",
          "type": "address"
        }
      ],
      "name": "assignRole",
      "outputs": [],
      "stateMutability": "nonpayable",
      "type": "function"
    },
    {
      "inputs": [
        {
          "internalType": "uint256",
          "name": "index",
          "type": "uint256"
        }
      ],
      "name": "getProductAtIndex",
      "outputs": [
        {
          "internalType": "string",
          "name": "",
          "type": "string"
        }
      ],
      "stateMutability": "view",
      "type": "function",
      "constant": true
    },
    {
      "inputs": [],
      "name": "getProductCount",
      "outputs": [
        {
          "internalType": "uint256",
          "name": "",
          "type": "uint256"
        }
      ],
      "stateMutability": "view",
      "type": "function",
      "constant": true
    },
    {
      "inputs": [],
      "name": "getProductList",
      "outputs": [
        {
          "internalType": "string[]",
          "name": "",
          "type": "string[]"
        }
      ],
      "stateMutability": "view",
      "type": "function",
      "constant": true
    }
  ],
  "bytecode": "0x608060405234801562000010575f80fd5b50620000255f801b336200012160201b60201c565b600160036040516200003790620002e4565b9081526020016040518091039020604051620000539062000348565b90815260200160405180910390205f6101000a81548160ff02191690831515021790555060016003604051620000899062000348565b9081526020016040518091039020604051620000a590620003ac565b90815260200160405180910390205f6101000a81548160ff02191690831515021790555060016003604051620000db90620003ac565b9081526020016040518091039020604051620000f79062000410565b90815260200160405180910390205f6101000a81548160ff02191690831515021790555062000426565b6200013382826200013760201b60201c565b5050565b6200014982826200022260201b60201c565b6200021e5760015f808481526020019081526020015f205f015f8373ffffffffffffffffffffffffffffffffffffffff1673ffffffffffffffffffffffffffffffffffffffff1681526020019081526020015f205f6101000a81548160ff021916908315150217905550620001c36200028560201b60201c565b73ffffffffffffffffffffffffffffffffffffffff168173ffffffffffffffffffffffffffffffffffffffff16837f2f8788117e7eff1d82e926ec794901d17c78024a50270940304540a733656f0d60405160405180910390a45b5050565b5f805f8481526020019081526020015f205f015f8373ffffffffffffffffffffffffffffffffffffffff1673ffffffffffffffffffffffffffffffffffffffff1681526020019081526020015f205f9054906101000a900460ff16905092915050565b5f33905090565b5f81905092915050565b7f43726561746564000000000000000000000000000000000000000000000000005f82015250565b5f620002cc6007836200028c565b9150620002d98262000296565b600782019050919050565b5f620002f082620002be565b9150819050919050565b7f4d616e75666163747572656400000000000000000000000000000000000000005f82015250565b5f62000330600c836200028c565b91506200033d82620002fa565b600c82019050919050565b5f620003548262000322565b9150819050919050565b7f496e205472616e736974000000000000000000000000000000000000000000005f82015250565b5f62000394600a836200028c565b9150620003a1826200035e565b600a82019050919050565b5f620003b88262000386565b9150819050919050565b7f417661696c61626c6520666f722053616c6500000000000000000000000000005f82015250565b5f620003f86012836200028c565b91506200040582620003c2565b601282019050919050565b5f6200041c82620003ea565b9150819050919050565b6136b980620004345f395ff3fe608060405234801561000f575f80fd5b5060043610610140575f3560e01c80635b0769d6116100b6578063a217fddf1161007a578063a217fddf146103a4578063a29508fc146103c2578063c602d3fb146103e0578063d4f50453146103fe578063d547741f1461042e578063f7f417f81461044a57610140565b80635b0769d6146102d557806368111cce146102f1578063776059ec1461032657806391d1485414610356578063965288b01461038657610140565b806330a727b31161010857806330a727b31461021357806334d2c0ad1461022f57806336568abe1461024d5780634a348da9146102695780634bc02da614610287578063528c87d2146102a557610140565b80630186a4231461014457806301ffc9a7146101795780632115e7bf146101a9578063248a9ca3146101c75780632f2ff15d146101f7575b5f80fd5b61015e600480360381019061015991906122b0565b610466565b604051610170969594939291906123b0565b60405180910390f35b610193600480360381019061018e9190612487565b610773565b6040516101a091906124cc565b60405180910390f35b6101b16107ec565b6040516101be91906124fd565b60405180910390f35b6101e160048036038101906101dc9190612540565b610810565b6040516101ee91906124fd565b60405180910390f35b610211600480360381019061020c9190612595565b61082c565b005b61022d60048036038101906102289190612595565b61084d565b005b610237610868565b60405161024491906126d6565b60405180910390f35b61026760048036038101906102629190612595565b61093c565b005b6102716109bf565b60405161027e919061270e565b60405180910390f35b61028f6109cb565b60405161029c91906124fd565b60405180910390f35b6102bf60048036038101906102ba9190612751565b6109ef565b6040516102cc919061277c565b60405180910390f35b6102ef60048036038101906102ea919061279c565b610a95565b005b61030b600480360381019061030691906122b0565b610ea0565b60405161031d9695949392919061289f565b60405180910390f35b610340600480360381019061033b9190612751565b611239565b60405161034d919061277c565b60405180910390f35b610370600480360381019061036b9190612595565b61132c565b60405161037d91906124cc565b60405180910390f35b61038e61138f565b60405161039b91906124fd565b60405180910390f35b6103ac6113b3565b6040516103b991906124fd565b60405180910390f35b6103ca6113b9565b6040516103d791906124fd565b60405180910390f35b6103e86113dd565b6040516103f591906124fd565b60405180910390f35b610418600480360381019061041391906122b0565b611401565b6040516104259190612a7b565b60405180910390f35b61044860048036038101906104439190612595565b611701565b005b610464600480360381019061045f9190612a9b565b611722565b005b6001818051602081018201805184825260208301602085012081835280955050505050505f91509050805f01805461049d90612b9c565b80601f01602080910402602001604051908101604052809291908181526020018280546104c990612b9c565b80156105145780601f106104eb57610100808354040283529160200191610514565b820191905f5260205f20905b8154815290600101906020018083116104f757829003601f168201915b50505050509080600101805461052990612b9c565b80601f016020809104026020016040519081016040528092919081815260200182805461055590612b9c565b80156105a05780601f10610577576101008083540402835291602001916105a0565b820191905f5260205f20905b81548152906001019060200180831161058357829003601f168201915b5050505050908060020180546105b590612b9c565b80601f01602080910402602001604051908101604052809291908181526020018280546105e190612b9c565b801561062c5780601f106106035761010080835404028352916020019161062c565b820191905f5260205f20905b81548152906001019060200180831161060f57829003601f168201915b505050505090806003015f9054906101000a900473ffffffffffffffffffffffffffffffffffffffff169080600401805461066690612b9c565b80601f016020809104026020016040519081016040528092919081815260200182805461069290612b9c565b80156106dd5780601f106106b4576101008083540402835291602001916106dd565b820191905f5260205f20905b8154815290600101906020018083116106c057829003601f168201915b5050505050908060050180546106f290612b9c565b80601f016020809104026020016040519081016040528092919081815260200182805461071e90612b9c565b80156107695780601f1061074057610100808354040283529160200191610769565b820191905f5260205f20905b81548152906001019060200180831161074c57829003601f168201915b5050505050905086565b5f7f7965db0b000000000000000000000000000000000000000000000000000000007bffffffffffffffffffffffffffffffffffffffffffffffffffffffff1916827bffffffffffffffffffffffffffffffffffffffffffffffffffffffff191614806107e557506107e482611c45565b5b9050919050565b7f2a5f906c256a5d799494fcd066e1f6c077689de1cdb65052a1624de4bace99bf81565b5f805f8381526020019081526020015f20600101549050919050565b61083582610810565b61083e81611cae565b6108488383611cc2565b505050565b5f801b61085981611cae565b610863838361082c565b505050565b60606002805480602002602001604051908101604052809291908181526020015f905b82821015610933578382905f5260205f200180546108a890612b9c565b80601f01602080910402602001604051908101604052809291908181526020018280546108d490612b9c565b801561091f5780601f106108f65761010080835404028352916020019161091f565b820191905f5260205f20905b81548152906001019060200180831161090257829003601f168201915b50505050508152602001906001019061088b565b50505050905090565b610944611d9c565b73ffffffffffffffffffffffffffffffffffffffff168173ffffffffffffffffffffffffffffffffffffffff16146109b1576040517f08c379a00000000000000000000000000000000000000000000000000000000081526004016109a890612c3c565b60405180910390fd5b6109bb8282611da3565b5050565b5f600280549050905090565b7f9d56108290ea0bc9c5c59c3ad357dca9d1b29ed7f3ae1443bef2fa2159bdf5e881565b600281815481106109fe575f80fd5b905f5260205f20015f915090508054610a1690612b9c565b80601f0160208091040260200160405190810160405280929190818152602001828054610a4290612b9c565b8015610a8d5780601f10610a6457610100808354040283529160200191610a8d565b820191905f5260205f20905b815481529060010190602001808311610a7057829003601f168201915b505050505081565b7fd1ae8bbdabd60d63e418b84f5ad6f9cba90092c9816d7724d85f0d4e4bea2c60610abf81611cae565b5f865111610b02576040517f08c379a0000000000000000000000000000000000000000000000000000000008152600401610af990612ca4565b60405180910390fd5b5f855111610b45576040517f08c379a0000000000000000000000000000000000000000000000000000000008152600401610b3c90612d0c565b60405180910390fd5b5f845111610b88576040517f08c379a0000000000000000000000000000000000000000000000000000000008152600401610b7f90612d74565b60405180910390fd5b5f600187604051610b999190612dcc565b90815260200160405180910390205f018054610bb490612b9c565b905014610bf6576040517f08c379a0000000000000000000000000000000000000000000000000000000008152600401610bed90612e2c565b60405180910390fd5b5f600187604051610c079190612dcc565b9081526020016040518091039020905086815f019081610c279190612fe7565b5085816001019081610c399190612fe7565b5084816002019081610c4b9190612fe7565b5033816003015f6101000a81548173ffffffffffffffffffffffffffffffffffffffff021916908373ffffffffffffffffffffffffffffffffffffffff1602179055506040518060400160405280600781526020017f4372656174656400000000000000000000000000000000000000000000000000815250816004019081610cd49190612fe7565b5082816005019081610ce69190612fe7565b50806006016040518060a001604052806040518060400160405280600781526020017f437265617465640000000000000000000000000000000000000000000000000081525081526020013373ffffffffffffffffffffffffffffffffffffffff16815260200142815260200186815260200185815250908060018154018082558091505060019003905f5260205f2090600502015f909190919091505f820151815f019081610d969190612fe7565b506020820151816001015f6101000a81548173ffffffffffffffffffffffffffffffffffffffff021916908373ffffffffffffffffffffffffffffffffffffffff160217905550604082015181600201556060820151816003019081610dfc9190612fe7565b506080820151816004019081610e129190612fe7565b505050600287908060018154018082558091505060019003905f5260205f20015f909190919091509081610e469190612fe7565b503373ffffffffffffffffffffffffffffffffffffffff167f4478fdb5cca1a28d79052038c209db14519451af9c6bc6e753a2614e5ea43f1a8887604051610e8f9291906130b6565b60405180910390a250505050505050565b6060805f6060806060865f600182604051610ebb9190612dcc565b90815260200160405180910390205f018054610ed690612b9c565b905003610f18576040517f08c379a0000000000000000000000000000000000000000000000000000000008152600401610f0f90613135565b60405180910390fd5b5f600189604051610f299190612dcc565b90815260200160405180910390209050805f0181600201826003015f9054906101000a900473ffffffffffffffffffffffffffffffffffffffff16836004018460010185600501858054610f7c90612b9c565b80601f0160208091040260200160405190810160405280929190818152602001828054610fa890612b9c565b8015610ff35780601f10610fca57610100808354040283529160200191610ff3565b820191905f5260205f20905b815481529060010190602001808311610fd657829003601f168201915b5050505050955084805461100690612b9c565b80601f016020809104026020016040519081016040528092919081815260200182805461103290612b9c565b801561107d5780601f106110545761010080835404028352916020019161107d565b820191905f5260205f20905b81548152906001019060200180831161106057829003601f168201915b5050505050945082805461109090612b9c565b80601f01602080910402602001604051908101604052809291908181526020018280546110bc90612b9c565b80156111075780601f106110de57610100808354040283529160200191611107565b820191905f5260205f20905b8154815290600101906020018083116110ea57829003601f168201915b5050505050925081805461111a90612b9c565b80601f016020809104026020016040519081016040528092919081815260200182805461114690612b9c565b80156111915780601f1061116857610100808354040283529160200191611191565b820191905f5260205f20905b81548152906001019060200180831161117457829003601f168201915b505050505091508080546111a490612b9c565b80601f01602080910402602001604051908101604052809291908181526020018280546111d090612b9c565b801561121b5780601f106111f25761010080835404028352916020019161121b565b820191905f5260205f20905b8154815290600101906020018083116111fe57829003601f168201915b50505050509050975097509750975097509750505091939550919395565b60606002805490508210611282576040517f08c379a00000000000000000000000000000000000000000000000000000000081526004016112799061319d565b60405180910390fd5b60028281548110611296576112956131bb565b5b905f5260205f200180546112a990612b9c565b80601f01602080910402602001604051908101604052809291908181526020018280546112d590612b9c565b80156113205780601f106112f757610100808354040283529160200191611320565b820191905f5260205f20905b81548152906001019060200180831161130357829003601f168201915b50505050509050919050565b5f805f8481526020019081526020015f205f015f8373ffffffffffffffffffffffffffffffffffffffff1673ffffffffffffffffffffffffffffffffffffffff1681526020019081526020015f205f9054906101000a900460ff16905092915050565b7feefb95e842a3287179d933b4460be539a1d5af11aa8b325bb45c5c8dc92de4ed81565b5f801b81565b7fd1ae8bbdabd60d63e418b84f5ad6f9cba90092c9816d7724d85f0d4e4bea2c6081565b7fded9b5e0e0e3a2b3f09a0bc36ec64b9bf7a7c2319f3c4d9cff5ce48714257b2181565b6060815f6001826040516114159190612dcc565b90815260200160405180910390205f01805461143090612b9c565b905003611472576040517f08c379a000000000000000000000000000000000000000000000000000000000815260040161146990613135565b60405180910390fd5b5f6001846040516114839190612dcc565b9081526020016040518091039020905080600601805480602002602001604051908101604052809291908181526020015f905b828210156116f4578382905f5260205f2090600502016040518060a00160405290815f820180546114e690612b9c565b80601f016020809104026020016040519081016040528092919081815260200182805461151290612b9c565b801561155d5780601f106115345761010080835404028352916020019161155d565b820191905f5260205f20905b81548152906001019060200180831161154057829003601f168201915b50505050508152602001600182015f9054906101000a900473ffffffffffffffffffffffffffffffffffffffff1673ffffffffffffffffffffffffffffffffffffffff1673ffffffffffffffffffffffffffffffffffffffff168152602001600282015481526020016003820180546115d590612b9c565b80601f016020809104026020016040519081016040528092919081815260200182805461160190612b9c565b801561164c5780601f106116235761010080835404028352916020019161164c565b820191905f5260205f20905b81548152906001019060200180831161162f57829003601f168201915b5050505050815260200160048201805461166590612b9c565b80601f016020809104026020016040519081016040528092919081815260200182805461169190612b9c565b80156116dc5780601f106116b3576101008083540402835291602001916116dc565b820191905f5260205f20905b8154815290600101906020018083116116bf57829003601f168201915b505050505081525050815260200190600101906114b6565b5050505092505050919050565b61170a82610810565b61171381611cae565b61171d8383611da3565b505050565b835f6001826040516117349190612dcc565b90815260200160405180910390205f01805461174f90612b9c565b905003611791576040517f08c379a000000000000000000000000000000000000000000000000000000000815260040161178890613135565b60405180910390fd5b5f6001866040516117a29190612dcc565b908152602001604051809103902090506003816004016040516117c59190613268565b9081526020016040518091039020856040516117e19190612dcc565b90815260200160405180910390205f9054906101000a900460ff1661183b576040517f08c379a0000000000000000000000000000000000000000000000000000000008152600401611832906132c8565b60405180910390fd5b6040518060400160405280600c81526020017f4d616e7566616374757265640000000000000000000000000000000000000000815250805190602001208580519060200120036118f3576118af7feefb95e842a3287179d933b4460be539a1d5af11aa8b325bb45c5c8dc92de4ed3361132c565b6118ee576040517f08c379a00000000000000000000000000000000000000000000000000000000081526004016118e590613330565b60405180910390fd5b611aa0565b6040518060400160405280600a81526020017f496e205472616e73697400000000000000000000000000000000000000000000815250805190602001208580519060200120036119ab576119677fded9b5e0e0e3a2b3f09a0bc36ec64b9bf7a7c2319f3c4d9cff5ce48714257b213361132c565b6119a6576040517f08c379a000000000000000000000000000000000000000000000000000000000815260040161199d90613398565b60405180910390fd5b611a9f565b6040518060400160405280601281526020017f417661696c61626c6520666f722053616c65000000000000000000000000000081525080519060200120858051906020012003611a6357611a1f7f2a5f906c256a5d799494fcd066e1f6c077689de1cdb65052a1624de4bace99bf3361132c565b611a5e576040517f08c379a0000000000000000000000000000000000000000000000000000000008152600401611a5590613400565b60405180910390fd5b611a9e565b6040517f08c379a0000000000000000000000000000000000000000000000000000000008152600401611a9590613468565b60405180910390fd5b5b5b84816004019081611ab19190612fe7565b5033816003015f6101000a81548173ffffffffffffffffffffffffffffffffffffffff021916908373ffffffffffffffffffffffffffffffffffffffff160217905550806006016040518060a001604052808781526020013373ffffffffffffffffffffffffffffffffffffffff16815260200142815260200186815260200185815250908060018154018082558091505060019003905f5260205f2090600502015f909190919091505f820151815f019081611b6e9190612fe7565b506020820151816001015f6101000a81548173ffffffffffffffffffffffffffffffffffffffff021916908373ffffffffffffffffffffffffffffffffffffffff160217905550604082015181600201556060820151816003019081611bd49190612fe7565b506080820151816004019081611bea9190612fe7565b5050503373ffffffffffffffffffffffffffffffffffffffff167ff57e2ba522f469da98aa2e88629bfa323d9b45ef059f83125f13be8b9fc8ed668787604051611c359291906130b6565b60405180910390a2505050505050565b5f7f01ffc9a7000000000000000000000000000000000000000000000000000000007bffffffffffffffffffffffffffffffffffffffffffffffffffffffff1916827bffffffffffffffffffffffffffffffffffffffffffffffffffffffff1916149050919050565b611cbf81611cba611d9c565b611e7d565b50565b611ccc828261132c565b611d985760015f808481526020019081526020015f205f015f8373ffffffffffffffffffffffffffffffffffffffff1673ffffffffffffffffffffffffffffffffffffffff1681526020019081526020015f205f6101000a81548160ff021916908315150217905550611d3d611d9c565b73ffffffffffffffffffffffffffffffffffffffff168173ffffffffffffffffffffffffffffffffffffffff16837f2f8788117e7eff1d82e926ec794901d17c78024a50270940304540a733656f0d60405160405180910390a45b5050565b5f33905090565b611dad828261132c565b15611e79575f805f8481526020019081526020015f205f015f8373ffffffffffffffffffffffffffffffffffffffff1673ffffffffffffffffffffffffffffffffffffffff1681526020019081526020015f205f6101000a81548160ff021916908315150217905550611e1e611d9c565b73ffffffffffffffffffffffffffffffffffffffff168173ffffffffffffffffffffffffffffffffffffffff16837ff6391f5c32d9c69d2a47ea670b442974b53935d1edc7fd64eb21e047a839171b60405160405180910390a45b5050565b611e87828261132c565b611efd57611e9481611f01565b611ea1835f1c6020611f2e565b604051602001611eb292919061351a565b6040516020818303038152906040526040517f08c379a0000000000000000000000000000000000000000000000000000000008152600401611ef4919061277c565b60405180910390fd5b5050565b6060611f278273ffffffffffffffffffffffffffffffffffffffff16601460ff16611f2e565b9050919050565b60605f6002836002611f409190613580565b611f4a91906135c1565b67ffffffffffffffff811115611f6357611f6261218c565b5b6040519080825280601f01601f191660200182016040528015611f955781602001600182028036833780820191505090505b5090507f3000000000000000000000000000000000000000000000000000000000000000815f81518110611fcc57611fcb6131bb565b5b60200101907effffffffffffffffffffffffffffffffffffffffffffffffffffffffffffff191690815f1a9053507f78000000000000000000000000000000000000000000000000000000000000008160018151811061202f5761202e6131bb565b5b60200101907effffffffffffffffffffffffffffffffffffffffffffffffffffffffffffff191690815f1a9053505f600184600261206d9190613580565b61207791906135c1565b90505b6001811115612116577f3031323334353637383961626364656600000000000000000000000000000000600f8616601081106120b9576120b86131bb565b5b1a60f81b8282815181106120d0576120cf6131bb565b5b60200101907effffffffffffffffffffffffffffffffffffffffffffffffffffffffffffff191690815f1a905350600485901c94508061210f906135f4565b905061207a565b505f8414612159576040517f08c379a000000000000000000000000000000000000000000000000000000000815260040161215090613665565b60405180910390fd5b8091505092915050565b5f604051905090565b5f80fd5b5f80fd5b5f80fd5b5f80fd5b5f601f19601f8301169050919050565b7f4e487b71000000000000000000000000000000000000000000000000000000005f52604160045260245ffd5b6121c28261217c565b810181811067ffffffffffffffff821117156121e1576121e061218c565b5b80604052505050565b5f6121f3612163565b90506121ff82826121b9565b919050565b5f67ffffffffffffffff82111561221e5761221d61218c565b5b6122278261217c565b9050602081019050919050565b828183375f83830152505050565b5f61225461224f84612204565b6121ea565b9050828152602081018484840111156122705761226f612178565b5b61227b848285612234565b509392505050565b5f82601f83011261229757612296612174565b5b81356122a7848260208601612242565b91505092915050565b5f602082840312156122c5576122c461216c565b5b5f82013567ffffffffffffffff8111156122e2576122e1612170565b5b6122ee84828501612283565b91505092915050565b5f81519050919050565b5f82825260208201905092915050565b5f5b8381101561232e578082015181840152602081019050612313565b5f8484015250505050565b5f612343826122f7565b61234d8185612301565b935061235d818560208601612311565b6123668161217c565b840191505092915050565b5f73ffffffffffffffffffffffffffffffffffffffff82169050919050565b5f61239a82612371565b9050919050565b6123aa81612390565b82525050565b5f60c0820190508181035f8301526123c88189612339565b905081810360208301526123dc8188612339565b905081810360408301526123f08187612339565b90506123ff60608301866123a1565b81810360808301526124118185612339565b905081810360a08301526124258184612339565b9050979650505050505050565b5f7fffffffff0000000000000000000000000000000000000000000000000000000082169050919050565b61246681612432565b8114612470575f80fd5b50565b5f813590506124818161245d565b92915050565b5f6020828403121561249c5761249b61216c565b5b5f6124a984828501612473565b91505092915050565b5f8115159050919050565b6124c6816124b2565b82525050565b5f6020820190506124df5f8301846124bd565b92915050565b5f819050919050565b6124f7816124e5565b82525050565b5f6020820190506125105f8301846124ee565b92915050565b61251f816124e5565b8114612529575f80fd5b50565b5f8135905061253a81612516565b92915050565b5f602082840312156125555761255461216c565b5b5f6125628482850161252c565b91505092915050565b61257481612390565b811461257e575f80fd5b50565b5f8135905061258f8161256b565b92915050565b5f80604083850312156125ab576125aa61216c565b5b5f6125b88582860161252c565b92505060206125c985828601612581565b9150509250929050565b5f81519050919050565b5f82825260208201905092915050565b5f819050602082019050919050565b5f82825260208201905092915050565b5f612616826122f7565b61262081856125fc565b9350612630818560208601612311565b6126398161217c565b840191505092915050565b5f61264f838361260c565b905092915050565b5f602082019050919050565b5f61266d826125d3565b61267781856125dd565b935083602082028501612689856125ed565b805f5b858110156126c457848403895281516126a58582612644565b94506126b083612657565b925060208a0199505060018101905061268c565b50829750879550505050505092915050565b5f6020820190508181035f8301526126ee8184612663565b905092915050565b5f819050919050565b612708816126f6565b82525050565b5f6020820190506127215f8301846126ff565b92915050565b612730816126f6565b811461273a575f80fd5b50565b5f8135905061274b81612727565b92915050565b5f602082840312156127665761276561216c565b5b5f6127738482850161273d565b91505092915050565b5f6020820190508181035f8301526127948184612339565b905092915050565b5f805f805f60a086880312156127b5576127b461216c565b5b5f86013567ffffffffffffffff8111156127d2576127d1612170565b5b6127de88828901612283565b955050602086013567ffffffffffffffff8111156127ff576127fe612170565b5b61280b88828901612283565b945050604086013567ffffffffffffffff81111561282c5761282b612170565b5b61283888828901612283565b935050606086013567ffffffffffffffff81111561285957612858612170565b5b61286588828901612283565b925050608086013567ffffffffffffffff81111561288657612885612170565b5b61289288828901612283565b9150509295509295909350565b5f60c0820190508181035f8301526128b78189612339565b905081810360208301526128cb8188612339565b90506128da60408301876123a1565b81810360608301526128ec8186612339565b905081810360808301526129008185612339565b905081810360a08301526129148184612339565b9050979650505050505050565b5f81519050919050565b5f82825260208201905092915050565b5f819050602082019050919050565b61295381612390565b82525050565b612962816126f6565b82525050565b5f60a083015f8301518482035f860152612982828261260c565b9150506020830151612997602086018261294a565b5060408301516129aa6040860182612959565b50606083015184820360608601526129c2828261260c565b915050608083015184820360808601526129dc828261260c565b9150508091505092915050565b5f6129f48383612968565b905092915050565b5f602082019050919050565b5f612a1282612921565b612a1c818561292b565b935083602082028501612a2e8561293b565b805f5b85811015612a695784840389528151612a4a85826129e9565b9450612a55836129fc565b925060208a01995050600181019050612a31565b50829750879550505050505092915050565b5f6020820190508181035f830152612a938184612a08565b905092915050565b5f805f8060808587031215612ab357612ab261216c565b5b5f85013567ffffffffffffffff811115612ad057612acf612170565b5b612adc87828801612283565b945050602085013567ffffffffffffffff811115612afd57612afc612170565b5b612b0987828801612283565b935050604085013567ffffffffffffffff811115612b2a57612b29612170565b5b612b3687828801612283565b925050606085013567ffffffffffffffff811115612b5757612b56612170565b5b612b6387828801612283565b91505092959194509250565b7f4e487b71000000000000000000000000000000000000000000000000000000005f52602260045260245ffd5b5f6002820490506001821680612bb357607f821691505b602082108103612bc657612bc5612b6f565b5b50919050565b7f416363657373436f6e74726f6c3a2063616e206f6e6c792072656e6f756e63655f8201527f20726f6c657320666f722073656c660000000000000000000000000000000000602082015250565b5f612c26602f83612301565b9150612c3182612bcc565b604082019050919050565b5f6020820190508181035f830152612c5381612c1a565b9050919050565b7f50726f64756374204944206973207265717569726564000000000000000000005f82015250565b5f612c8e601683612301565b9150612c9982612c5a565b602082019050919050565b5f6020820190508181035f830152612cbb81612c82565b9050919050565b7f50726f64756374204e616d6520697320726571756972656400000000000000005f82015250565b5f612cf6601883612301565b9150612d0182612cc2565b602082019050919050565b5f6020820190508181035f830152612d2381612cea565b9050919050565b7f4f726967696e20697320726571756972656400000000000000000000000000005f82015250565b5f612d5e601283612301565b9150612d6982612d2a565b602082019050919050565b5f6020820190508181035f830152612d8b81612d52565b9050919050565b5f81905092915050565b5f612da6826122f7565b612db08185612d92565b9350612dc0818560208601612311565b80840191505092915050565b5f612dd78284612d9c565b915081905092915050565b7f50726f6475637420616c726561647920657869737473000000000000000000005f82015250565b5f612e16601683612301565b9150612e2182612de2565b602082019050919050565b5f6020820190508181035f830152612e4381612e0a565b9050919050565b5f819050815f5260205f209050919050565b5f6020601f8301049050919050565b5f82821b905092915050565b5f60088302612ea67fffffffffffffffffffffffffffffffffffffffffffffffffffffffffffffffff82612e6b565b612eb08683612e6b565b95508019841693508086168417925050509392505050565b5f819050919050565b5f612eeb612ee6612ee1846126f6565b612ec8565b6126f6565b9050919050565b5f819050919050565b612f0483612ed1565b612f18612f1082612ef2565b848454612e77565b825550505050565b5f90565b612f2c612f20565b612f37818484612efb565b505050565b5b81811015612f5a57612f4f5f82612f24565b600181019050612f3d565b5050565b601f821115612f9f57612f7081612e4a565b612f7984612e5c565b81016020851015612f88578190505b612f9c612f9485612e5c565b830182612f3c565b50505b505050565b5f82821c905092915050565b5f612fbf5f1984600802612fa4565b1980831691505092915050565b5f612fd78383612fb0565b9150826002028217905092915050565b612ff0826122f7565b67ffffffffffffffff8111156130095761300861218c565b5b6130138254612b9c565b61301e828285612f5e565b5f60209050601f83116001811461304f575f841561303d578287015190505b6130478582612fcc565b8655506130ae565b601f19841661305d86612e4a565b5f5b828110156130845784890151825560018201915060208501945060208101905061305f565b868310156130a1578489015161309d601f891682612fb0565b8355505b6001600288020188555050505b505050505050565b5f6040820190508181035f8301526130ce8185612339565b905081810360208301526130e28184612339565b90509392505050565b7f50726f6475637420646f6573206e6f74206578697374000000000000000000005f82015250565b5f61311f601683612301565b915061312a826130eb565b602082019050919050565b5f6020820190508181035f83015261314c81613113565b9050919050565b7f496e646578206f7574206f6620626f756e6473000000000000000000000000005f82015250565b5f613187601383612301565b915061319282613153565b602082019050919050565b5f6020820190508181035f8301526131b48161317b565b9050919050565b7f4e487b71000000000000000000000000000000000000000000000000000000005f52603260045260245ffd5b5f81546131f481612b9c565b6131fe8186612d92565b9450600182165f8114613218576001811461322d5761325f565b60ff198316865281151582028601935061325f565b61323685612e4a565b5f5b8381101561325757815481890152600182019150602081019050613238565b838801955050505b50505092915050565b5f61327382846131e8565b915081905092915050565b7f496e76616c696420737461747573207472616e736974696f6e000000000000005f82015250565b5f6132b2601983612301565b91506132bd8261327e565b602082019050919050565b5f6020820190508181035f8301526132df816132a6565b9050919050565b7f43616c6c6572206973206e6f742061204d616e756661637475726572000000005f82015250565b5f61331a601c83612301565b9150613325826132e6565b602082019050919050565b5f6020820190508181035f8301526133478161330e565b9050919050565b7f43616c6c6572206973206e6f74204c6f676973746963732050726f76696465725f82015250565b5f613382602083612301565b915061338d8261334e565b602082019050919050565b5f6020820190508181035f8301526133af81613376565b9050919050565b7f43616c6c6572206973206e6f7420612052657461696c657200000000000000005f82015250565b5f6133ea601883612301565b91506133f5826133b6565b602082019050919050565b5f6020820190508181035f830152613417816133de565b9050919050565b7f496e76616c6964207374617475732075706461746500000000000000000000005f82015250565b5f613452601583612301565b915061345d8261341e565b602082019050919050565b5f6020820190508181035f83015261347f81613446565b9050919050565b7f416363657373436f6e74726f6c3a206163636f756e74200000000000000000005f82015250565b5f6134ba601783612d92565b91506134c582613486565b601782019050919050565b7f206973206d697373696e6720726f6c65200000000000000000000000000000005f82015250565b5f613504601183612d92565b915061350f826134d0565b601182019050919050565b5f613524826134ae565b91506135308285612d9c565b915061353b826134f8565b91506135478284612d9c565b91508190509392505050565b7f4e487b71000000000000000000000000000000000000000000000000000000005f52601160045260245ffd5b5f61358a826126f6565b9150613595836126f6565b92508282026135a3816126f6565b915082820484148315176135ba576135b9613553565b5b5092915050565b5f6135cb826126f6565b91506135d6836126f6565b92508282019050808211156135ee576135ed613553565b5b92915050565b5f6135fe826126f6565b91505f82036136105761360f613553565b5b600182039050919050565b7f537472696e67733a20686578206c656e67746820696e73756666696369656e745f82015250565b5f61364f602083612301565b915061365a8261361b565b602082019050919050565b5f6020820190508181035f83015261367c81613643565b905091905056fea2646970667358221220f268649388b53d42aab699e6897b7d9bc5a2b10720f9999754f398f1dc0db0bc64736f6c63430008150033",
  "immutableReferences": {},
  "source": "pragma solidity ^0.8.0;\n\nimport {AccessControl} from \"@openzeppelin/contracts/access/AccessControl.sol\";\n\ncontract SupplyChain is AccessControl {\n    // Define roles using OpenZeppelin's AccessControl\n    bytes32 public constant SUPPLIER_ROLE = keccak256(\"SUPPLIER_ROLE\");\n    bytes32 public constant MANUFACTURER_ROLE = keccak256(\"MANUFACTURER_ROLE\");\n    bytes32 public constant LOGISTICS_ROLE = keccak256(\"LOGISTICS_ROLE\");\n    bytes32 public constant RETAILER_ROLE = keccak256(\"RETAILER_ROLE\");\n    bytes32 public constant CONSUMER_ROLE = keccak256(\"CONSUMER_ROLE\");\n\n    struct StatusUpdate {\n        string status;\n        address updatedBy;\n        uint256 timestamp;\n        string location;\n        string actor;\n    }\n\n    struct Product {\n        string productID;\n        string productName;\n        string origin;\n        address currentHolder;\n        string status;\n        string actor;\n        StatusUpdate[] history;\n    }\n\n    // Mapping from productID to Product\n    mapping(string => Product) public products;\n    string[] public productList;\n\n    mapping(string => mapping(string => bool)) private validTransitions;\n\n    // Events to emit for frontend tracking\n    event ProductCreated(string productID, string origin, address indexed supplier);\n    event ProductStatusUpdated(string productID, string status, address indexed updater);\n\n    constructor() {\n        _setupRole(DEFAULT_ADMIN_ROLE, msg.sender);\n\n        // Define valid status transitions\n        validTransitions[\"Created\"][\"Manufactured\"] = true;\n        validTransitions[\"Manufactured\"][\"In Transit\"] = true;\n        validTransitions[\"In Transit\"][\"Available for Sale\"] = true;\n    }\n\n    // Modifier to check if product exists\n    modifier productExists(string memory _productID) {\n        require(bytes(products[_productID].productID).length != 0, \"Product does not exist\");\n        _;\n    }\n\n    // Function to create a new product\n    function createProduct(\n        string memory _productID,\n        string memory _productName,\n        string memory _origin,\n        string memory _location,\n        string memory _actor\n    ) public onlyRole(SUPPLIER_ROLE) {\n        require(bytes(_productID).length > 0, \"Product ID is required\");\n        require(bytes(_productName).length > 0, \"Product Name is required\");\n        require(bytes(_origin).length > 0, \"Origin is required\");\n        require(bytes(products[_productID].productID).length == 0, \"Product already exists\");\n\n        Product storage newProduct = products[_productID];\n        newProduct.productID = _productID;\n        newProduct.productName = _productName;\n        newProduct.origin = _origin;\n        newProduct.currentHolder = msg.sender;\n        newProduct.status = \"Created\";\n        newProduct.actor = _actor;\n\n        newProduct.history.push(StatusUpdate({\n            status: \"Created\",\n            updatedBy: msg.sender,\n            timestamp: block.timestamp,\n            location: _location,\n            actor: _actor\n        }));\n\n        productList.push(_productID);\n\n        emit ProductCreated(_productID, _origin, msg.sender);\n    }\n\n    // Function to update product status\n    function updateStatus(\n        string memory _productID,\n        string memory _status,\n        string memory _location,\n        string memory _actor\n    ) public productExists(_productID) {\n        Product storage product = products[_productID];\n\n        // Ensure the new status is valid based on the current status\n        require(\n            validTransitions[product.status][_status],\n            \"Invalid status transition\"\n        );\n\n        // Check role based on status\n        if (keccak256(bytes(_status)) == keccak256(bytes(\"Manufactured\"))) {\n            require(hasRole(MANUFACTURER_ROLE, msg.sender), \"Caller is not a Manufacturer\");\n        } else if (keccak256(bytes(_status)) == keccak256(bytes(\"In Transit\"))) {\n            require(hasRole(LOGISTICS_ROLE, msg.sender), \"Caller is not Logistics Provider\");\n        } else if (keccak256(bytes(_status)) == keccak256(bytes(\"Available for Sale\"))) {\n            require(hasRole(RETAILER_ROLE, msg.sender), \"Caller is not a Retailer\");\n        } else {\n            revert(\"Invalid status update\");\n        }\n\n        // Update product status\n        product.status = _status;\n        product.currentHolder = msg.sender;\n\n        product.history.push(StatusUpdate({\n            status: _status,\n            updatedBy: msg.sender,\n            timestamp: block.timestamp,\n            location: _location,\n            actor: _actor\n        }));\n\n        emit ProductStatusUpdated(_productID, _status, msg.sender);\n    }\n\n\n\n    // Function to get product details\n    function getProduct(string memory _productID) public view productExists(_productID) returns (\n        string memory productID,\n        string memory origin,\n        address currentHolder,\n        string memory status,\n        string memory productName,\n        string memory actor\n    ) {\n        Product storage product = products[_productID];\n        return (\n            product.productID,\n            product.origin,\n            product.currentHolder,\n            product.status,\n            product.productName,\n            product.actor\n        );\n    }\n\n    // Function to get product history\n    function getProductHistory(string memory _productID) public view productExists(_productID) returns (\n        StatusUpdate[] memory\n    ) {\n        Product storage product = products[_productID];\n        return product.history;\n    }\n\n    // Function to assign roles to addresses\n    function assignRole(bytes32 role, address account) public onlyRole(DEFAULT_ADMIN_ROLE) {\n        grantRole(role, account);\n    }\n\n    function getProductAtIndex(uint256 index) public view returns (string memory) {\n        require(index < productList.length, \"Index out of bounds\");\n        return productList[index];\n    }\n\n    function getProductCount() public view returns (uint256) {\n        return productList.length;\n    }\n\n    function getProductList() public view returns (string[] memory) {\n        return productList;\n    }\n\n}\n\n",
  "sourcePath": "/Users/beltranbulbarella/WebstormProjects/poc_blockchain/contracts/SupplyChain.sol",
  "compiler": {
    "name": "solc",
    "version": "0.8.21+commit.d9974bed.Emscripten.clang"
  },
  "schemaVersion": "3.4.16",
  "updatedAt": "2024-11-29T07:58:05.593Z",
  "networkType": "ethereum",
  "devdoc": {
    "events": {
      "RoleAdminChanged(bytes32,bytes32,bytes32)": {
        "details": "Emitted when `newAdminRole` is set as ``role``'s admin role, replacing `previousAdminRole` `DEFAULT_ADMIN_ROLE` is the starting admin for all roles, despite {RoleAdminChanged} not being emitted signaling this. _Available since v3.1._"
      },
      "RoleGranted(bytes32,address,address)": {
        "details": "Emitted when `account` is granted `role`. `sender` is the account that originated the contract call, an admin role bearer except when using {AccessControl-_setupRole}."
      },
      "RoleRevoked(bytes32,address,address)": {
        "details": "Emitted when `account` is revoked `role`. `sender` is the account that originated the contract call:   - if using `revokeRole`, it is the admin role bearer   - if using `renounceRole`, it is the role bearer (i.e. `account`)"
      }
    },
    "kind": "dev",
    "methods": {
      "getRoleAdmin(bytes32)": {
        "details": "Returns the admin role that controls `role`. See {grantRole} and {revokeRole}. To change a role's admin, use {_setRoleAdmin}."
      },
      "grantRole(bytes32,address)": {
        "details": "Grants `role` to `account`. If `account` had not been already granted `role`, emits a {RoleGranted} event. Requirements: - the caller must have ``role``'s admin role. May emit a {RoleGranted} event."
      },
      "hasRole(bytes32,address)": {
        "details": "Returns `true` if `account` has been granted `role`."
      },
      "renounceRole(bytes32,address)": {
        "details": "Revokes `role` from the calling account. Roles are often managed via {grantRole} and {revokeRole}: this function's purpose is to provide a mechanism for accounts to lose their privileges if they are compromised (such as when a trusted device is misplaced). If the calling account had been revoked `role`, emits a {RoleRevoked} event. Requirements: - the caller must be `account`. May emit a {RoleRevoked} event."
      },
      "revokeRole(bytes32,address)": {
        "details": "Revokes `role` from `account`. If `account` had been granted `role`, emits a {RoleRevoked} event. Requirements: - the caller must have ``role``'s admin role. May emit a {RoleRevoked} event."
      },
      "supportsInterface(bytes4)": {
        "details": "See {IERC165-supportsInterface}."
      }
    },
    "version": 1
  },
  "userdoc": {
    "kind": "user",
    "methods": {},
    "version": 1
  }
}